{
  "contractName": "ProofOfSkill",
  "abi": [
    {
      "inputs": [
        {
          "internalType": "uint256",
          "name": "_mintingFee",
          "type": "uint256"
        }
      ],
      "stateMutability": "nonpayable",
      "type": "constructor"
    },
    {
      "anonymous": false,
      "inputs": [
        {
          "indexed": true,
          "internalType": "address",
          "name": "owner",
          "type": "address"
        },
        {
          "indexed": true,
          "internalType": "address",
          "name": "approved",
          "type": "address"
        },
        {
          "indexed": true,
          "internalType": "uint256",
          "name": "tokenId",
          "type": "uint256"
        }
      ],
      "name": "Approval",
      "type": "event"
    },
    {
      "anonymous": false,
      "inputs": [
        {
          "indexed": true,
          "internalType": "address",
          "name": "owner",
          "type": "address"
        },
        {
          "indexed": true,
          "internalType": "address",
          "name": "operator",
          "type": "address"
        },
        {
          "indexed": false,
          "internalType": "bool",
          "name": "approved",
          "type": "bool"
        }
      ],
      "name": "ApprovalForAll",
      "type": "event"
    },
    {
      "anonymous": false,
      "inputs": [
        {
          "indexed": true,
          "internalType": "address",
          "name": "recipient",
          "type": "address"
        },
        {
          "indexed": true,
          "internalType": "uint256",
          "name": "tokenId",
          "type": "uint256"
        },
        {
          "indexed": false,
          "internalType": "uint256",
          "name": "value",
          "type": "uint256"
        }
      ],
      "name": "MintedNFT",
      "type": "event"
    },
    {
      "anonymous": false,
      "inputs": [
        {
          "indexed": true,
          "internalType": "address",
          "name": "previousOwner",
          "type": "address"
        },
        {
          "indexed": true,
          "internalType": "address",
          "name": "newOwner",
          "type": "address"
        }
      ],
      "name": "OwnershipTransferred",
      "type": "event"
    },
    {
      "anonymous": false,
      "inputs": [
        {
          "indexed": true,
          "internalType": "address",
          "name": "from",
          "type": "address"
        },
        {
          "indexed": true,
          "internalType": "address",
          "name": "to",
          "type": "address"
        },
        {
          "indexed": true,
          "internalType": "uint256",
          "name": "tokenId",
          "type": "uint256"
        }
      ],
      "name": "Transfer",
      "type": "event"
    },
    {
      "inputs": [
        {
          "internalType": "address",
          "name": "to",
          "type": "address"
        },
        {
          "internalType": "uint256",
          "name": "tokenId",
          "type": "uint256"
        }
      ],
      "name": "approve",
      "outputs": [],
      "stateMutability": "nonpayable",
      "type": "function"
    },
    {
      "inputs": [
        {
          "internalType": "address",
          "name": "owner",
          "type": "address"
        }
      ],
      "name": "balanceOf",
      "outputs": [
        {
          "internalType": "uint256",
          "name": "",
          "type": "uint256"
        }
      ],
      "stateMutability": "view",
      "type": "function",
      "constant": true
    },
    {
      "inputs": [
        {
          "internalType": "uint256",
          "name": "tokenId",
          "type": "uint256"
        }
      ],
      "name": "getApproved",
      "outputs": [
        {
          "internalType": "address",
          "name": "",
          "type": "address"
        }
      ],
      "stateMutability": "view",
      "type": "function",
      "constant": true
    },
    {
      "inputs": [
        {
          "internalType": "address",
          "name": "owner",
          "type": "address"
        },
        {
          "internalType": "address",
          "name": "operator",
          "type": "address"
        }
      ],
      "name": "isApprovedForAll",
      "outputs": [
        {
          "internalType": "bool",
          "name": "",
          "type": "bool"
        }
      ],
      "stateMutability": "view",
      "type": "function",
      "constant": true
    },
    {
      "inputs": [],
      "name": "mintingFee",
      "outputs": [
        {
          "internalType": "uint256",
          "name": "",
          "type": "uint256"
        }
      ],
      "stateMutability": "view",
      "type": "function",
      "constant": true
    },
    {
      "inputs": [],
      "name": "name",
      "outputs": [
        {
          "internalType": "string",
          "name": "",
          "type": "string"
        }
      ],
      "stateMutability": "view",
      "type": "function",
      "constant": true
    },
    {
      "inputs": [],
      "name": "owner",
      "outputs": [
        {
          "internalType": "address",
          "name": "",
          "type": "address"
        }
      ],
      "stateMutability": "view",
      "type": "function",
      "constant": true
    },
    {
      "inputs": [
        {
          "internalType": "uint256",
          "name": "tokenId",
          "type": "uint256"
        }
      ],
      "name": "ownerOf",
      "outputs": [
        {
          "internalType": "address",
          "name": "",
          "type": "address"
        }
      ],
      "stateMutability": "view",
      "type": "function",
      "constant": true
    },
    {
      "inputs": [],
      "name": "renounceOwnership",
      "outputs": [],
      "stateMutability": "nonpayable",
      "type": "function"
    },
    {
      "inputs": [
        {
          "internalType": "address",
          "name": "from",
          "type": "address"
        },
        {
          "internalType": "address",
          "name": "to",
          "type": "address"
        },
        {
          "internalType": "uint256",
          "name": "tokenId",
          "type": "uint256"
        }
      ],
      "name": "safeTransferFrom",
      "outputs": [],
      "stateMutability": "nonpayable",
      "type": "function"
    },
    {
      "inputs": [
        {
          "internalType": "address",
          "name": "from",
          "type": "address"
        },
        {
          "internalType": "address",
          "name": "to",
          "type": "address"
        },
        {
          "internalType": "uint256",
          "name": "tokenId",
          "type": "uint256"
        },
        {
          "internalType": "bytes",
          "name": "data",
          "type": "bytes"
        }
      ],
      "name": "safeTransferFrom",
      "outputs": [],
      "stateMutability": "nonpayable",
      "type": "function"
    },
    {
      "inputs": [
        {
          "internalType": "address",
          "name": "operator",
          "type": "address"
        },
        {
          "internalType": "bool",
          "name": "approved",
          "type": "bool"
        }
      ],
      "name": "setApprovalForAll",
      "outputs": [],
      "stateMutability": "nonpayable",
      "type": "function"
    },
    {
      "inputs": [
        {
          "internalType": "bytes4",
          "name": "interfaceId",
          "type": "bytes4"
        }
      ],
      "name": "supportsInterface",
      "outputs": [
        {
          "internalType": "bool",
          "name": "",
          "type": "bool"
        }
      ],
      "stateMutability": "view",
      "type": "function",
      "constant": true
    },
    {
      "inputs": [],
      "name": "symbol",
      "outputs": [
        {
          "internalType": "string",
          "name": "",
          "type": "string"
        }
      ],
      "stateMutability": "view",
      "type": "function",
      "constant": true
    },
    {
      "inputs": [],
      "name": "tokenCounter",
      "outputs": [
        {
          "internalType": "uint256",
          "name": "",
          "type": "uint256"
        }
      ],
      "stateMutability": "view",
      "type": "function",
      "constant": true
    },
    {
      "inputs": [
        {
          "internalType": "uint256",
          "name": "",
          "type": "uint256"
        }
      ],
      "name": "tokenIdToSkill",
      "outputs": [
        {
          "internalType": "string",
          "name": "skillName",
          "type": "string"
        }
      ],
      "stateMutability": "view",
      "type": "function",
      "constant": true
    },
    {
      "inputs": [
        {
          "internalType": "uint256",
          "name": "tokenId",
          "type": "uint256"
        }
      ],
      "name": "tokenURI",
      "outputs": [
        {
          "internalType": "string",
          "name": "",
          "type": "string"
        }
      ],
      "stateMutability": "view",
      "type": "function",
      "constant": true
    },
    {
      "inputs": [
        {
          "internalType": "address",
          "name": "from",
          "type": "address"
        },
        {
          "internalType": "address",
          "name": "to",
          "type": "address"
        },
        {
          "internalType": "uint256",
          "name": "tokenId",
          "type": "uint256"
        }
      ],
      "name": "transferFrom",
      "outputs": [],
      "stateMutability": "nonpayable",
      "type": "function"
    },
    {
      "inputs": [
        {
          "internalType": "address",
          "name": "newOwner",
          "type": "address"
        }
      ],
      "name": "transferOwnership",
      "outputs": [],
      "stateMutability": "nonpayable",
      "type": "function"
    },
    {
      "inputs": [
        {
          "internalType": "address",
          "name": "recipient",
          "type": "address"
        },
        {
          "internalType": "string",
          "name": "skillName",
          "type": "string"
        },
        {
          "internalType": "string",
          "name": "tokenURI",
          "type": "string"
        }
      ],
      "name": "mintSkillNFT",
      "outputs": [],
      "stateMutability": "payable",
      "type": "function",
      "payable": true
    },
    {
      "inputs": [],
      "name": "withdraw",
      "outputs": [],
      "stateMutability": "nonpayable",
      "type": "function"
    },
    {
      "inputs": [
        {
          "internalType": "uint256",
          "name": "tokenId",
          "type": "uint256"
        }
      ],
      "name": "getSkillDetails",
      "outputs": [
        {
          "internalType": "string",
          "name": "skillName",
          "type": "string"
        }
      ],
      "stateMutability": "view",
      "type": "function",
      "constant": true
    }
  ],
  "bytecode": "0x60806040523480156200001157600080fd5b5060405162003a7a38038062003a7a83398181016040528101906200003791906200020d565b6040518060400160405280600c81526020017f50726f6f664f66536b696c6c00000000000000000000000000000000000000008152506040518060400160405280600381526020017f504f5300000000000000000000000000000000000000000000000000000000008152508160009081620000b49190620004af565b508060019081620000c69190620004af565b505050620000e9620000dd620000ff60201b60201c565b6200010760201b60201c565b6000600881905550806009819055505062000596565b600033905090565b6000600760009054906101000a900473ffffffffffffffffffffffffffffffffffffffff16905081600760006101000a81548173ffffffffffffffffffffffffffffffffffffffff021916908373ffffffffffffffffffffffffffffffffffffffff1602179055508173ffffffffffffffffffffffffffffffffffffffff168173ffffffffffffffffffffffffffffffffffffffff167f8be0079c531659141344cd1fd0a4f28419497f9722a3daafe3b4186f6b6457e060405160405180910390a35050565b600080fd5b6000819050919050565b620001e781620001d2565b8114620001f357600080fd5b50565b6000815190506200020781620001dc565b92915050565b600060208284031215620002265762000225620001cd565b5b60006200023684828501620001f6565b91505092915050565b600081519050919050565b7f4e487b7100000000000000000000000000000000000000000000000000000000600052604160045260246000fd5b7f4e487b7100000000000000000000000000000000000000000000000000000000600052602260045260246000fd5b60006002820490506001821680620002c157607f821691505b602082108103620002d757620002d662000279565b5b50919050565b60008190508160005260206000209050919050565b60006020601f8301049050919050565b600082821b905092915050565b600060088302620003417fffffffffffffffffffffffffffffffffffffffffffffffffffffffffffffffff8262000302565b6200034d868362000302565b95508019841693508086168417925050509392505050565b6000819050919050565b6000620003906200038a6200038484620001d2565b62000365565b620001d2565b9050919050565b6000819050919050565b620003ac836200036f565b620003c4620003bb8262000397565b8484546200030f565b825550505050565b600090565b620003db620003cc565b620003e8818484620003a1565b505050565b5b81811015620004105762000404600082620003d1565b600181019050620003ee565b5050565b601f8211156200045f576200042981620002dd565b6200043484620002f2565b8101602085101562000444578190505b6200045c6200045385620002f2565b830182620003ed565b50505b505050565b600082821c905092915050565b6000620004846000198460080262000464565b1980831691505092915050565b60006200049f838362000471565b9150826002028217905092915050565b620004ba826200023f565b67ffffffffffffffff811115620004d657620004d56200024a565b5b620004e28254620002a8565b620004ef82828562000414565b600060209050601f83116001811462000527576000841562000512578287015190505b6200051e858262000491565b8655506200058e565b601f1984166200053786620002dd565b60005b8281101562000561578489015182556001820191506020850194506020810190506200053a565b868310156200058157848901516200057d601f89168262000471565b8355505b6001600288020188555050505b505050505050565b6134d480620005a66000396000f3fe6080604052600436106101355760003560e01c80636352211e116100ab578063a22cb4651161006f578063a22cb46514610419578063b88d4fde14610442578063c87b56dd1461046b578063d082e381146104a8578063e985e9c5146104d3578063f2fde38b1461051057610135565b80636352211e1461033257806370a082311461036f578063715018a6146103ac5780638da5cb5b146103c357806395d89b41146103ee57610135565b806323b872dd116100fd57806323b872dd14610245578063251134681461026e5780633ccfd60b146102ab57806342842e0e146102c2578063523c8e66146102eb5780635a64ad951461030757610135565b806301ffc9a71461013a57806306fdde0314610177578063081812fc146101a2578063095ea7b3146101df5780630f4e35c714610208575b600080fd5b34801561014657600080fd5b50610161600480360381019061015c91906120ef565b610539565b60405161016e9190612137565b60405180910390f35b34801561018357600080fd5b5061018c61061b565b60405161019991906121e2565b60405180910390f35b3480156101ae57600080fd5b506101c960048036038101906101c4919061223a565b6106ad565b6040516101d691906122a8565b60405180910390f35b3480156101eb57600080fd5b50610206600480360381019061020191906122ef565b6106f3565b005b34801561021457600080fd5b5061022f600480360381019061022a919061223a565b61080a565b60405161023c91906121e2565b60405180910390f35b34801561025157600080fd5b5061026c6004803603810190610267919061232f565b6108b0565b005b34801561027a57600080fd5b506102956004803603810190610290919061223a565b610910565b6040516102a291906121e2565b60405180910390f35b3480156102b757600080fd5b506102c06109d3565b005b3480156102ce57600080fd5b506102e960048036038101906102e4919061232f565b610a74565b005b610305600480360381019061030091906124b7565b610a94565b005b34801561031357600080fd5b5061031c610be2565b6040516103299190612551565b60405180910390f35b34801561033e57600080fd5b506103596004803603810190610354919061223a565b610be8565b60405161036691906122a8565b60405180910390f35b34801561037b57600080fd5b506103966004803603810190610391919061256c565b610c6e565b6040516103a39190612551565b60405180910390f35b3480156103b857600080fd5b506103c1610d25565b005b3480156103cf57600080fd5b506103d8610d39565b6040516103e591906122a8565b60405180910390f35b3480156103fa57600080fd5b50610403610d63565b60405161041091906121e2565b60405180910390f35b34801561042557600080fd5b50610440600480360381019061043b91906125c5565b610df5565b005b34801561044e57600080fd5b50610469600480360381019061046491906126a6565b610e0b565b005b34801561047757600080fd5b50610492600480360381019061048d919061223a565b610e6d565b60405161049f91906121e2565b60405180910390f35b3480156104b457600080fd5b506104bd610f7f565b6040516104ca9190612551565b60405180910390f35b3480156104df57600080fd5b506104fa60048036038101906104f59190612729565b610f85565b6040516105079190612137565b60405180910390f35b34801561051c57600080fd5b506105376004803603810190610532919061256c565b611019565b005b60007f80ac58cd000000000000000000000000000000000000000000000000000000007bffffffffffffffffffffffffffffffffffffffffffffffffffffffff1916827bffffffffffffffffffffffffffffffffffffffffffffffffffffffff1916148061060457507f5b5e139f000000000000000000000000000000000000000000000000000000007bffffffffffffffffffffffffffffffffffffffffffffffffffffffff1916827bffffffffffffffffffffffffffffffffffffffffffffffffffffffff1916145b8061061457506106138261109c565b5b9050919050565b60606000805461062a90612798565b80601f016020809104026020016040519081016040528092919081815260200182805461065690612798565b80156106a35780601f10610678576101008083540402835291602001916106a3565b820191906000526020600020905b81548152906001019060200180831161068657829003601f168201915b5050505050905090565b60006106b882611106565b6004600083815260200190815260200160002060009054906101000a900473ffffffffffffffffffffffffffffffffffffffff169050919050565b60006106fe82610be8565b90508073ffffffffffffffffffffffffffffffffffffffff168373ffffffffffffffffffffffffffffffffffffffff160361076e576040517f08c379a00000000000000000000000000000000000000000000000000000000081526004016107659061283b565b60405180910390fd5b8073ffffffffffffffffffffffffffffffffffffffff1661078d611151565b73ffffffffffffffffffffffffffffffffffffffff1614806107bc57506107bb816107b6611151565b610f85565b5b6107fb576040517f08c379a00000000000000000000000000000000000000000000000000000000081526004016107f2906128cd565b60405180910390fd5b6108058383611159565b505050565b600a60205280600052604060002060009150905080600001805461082d90612798565b80601f016020809104026020016040519081016040528092919081815260200182805461085990612798565b80156108a65780601f1061087b576101008083540402835291602001916108a6565b820191906000526020600020905b81548152906001019060200180831161088957829003601f168201915b5050505050905081565b6108c16108bb611151565b82611212565b610900576040517f08c379a00000000000000000000000000000000000000000000000000000000081526004016108f79061295f565b60405180910390fd5b61090b8383836112a7565b505050565b60606000600a600084815260200190815260200160002060405180602001604052908160008201805461094290612798565b80601f016020809104026020016040519081016040528092919081815260200182805461096e90612798565b80156109bb5780601f10610990576101008083540402835291602001916109bb565b820191906000526020600020905b81548152906001019060200180831161099e57829003601f168201915b50505050508152505090508060000151915050919050565b6109db6115a0565b600047905060008111610a23576040517f08c379a0000000000000000000000000000000000000000000000000000000008152600401610a1a906129cb565b60405180910390fd5b610a2b610d39565b73ffffffffffffffffffffffffffffffffffffffff166108fc829081150290604051600060405180830381858888f19350505050158015610a70573d6000803e3d6000fd5b5050565b610a8f83838360405180602001604052806000815250610e0b565b505050565b6000825111610ad8576040517f08c379a0000000000000000000000000000000000000000000000000000000008152600401610acf90612a37565b60405180910390fd5b600954341015610b1d576040517f08c379a0000000000000000000000000000000000000000000000000000000008152600401610b1490612aa3565b60405180910390fd5b60006008549050610b2e848261161e565b610b38818361163c565b604051806020016040528084815250600a60008381526020019081526020016000206000820151816000019081610b6f9190612c6f565b50905050600160086000828254610b869190612d70565b92505081905550808473ffffffffffffffffffffffffffffffffffffffff167f27f581175c28f51fe9447b724f6ec52c8335d03b958107f6fb14e955981af4c034604051610bd49190612551565b60405180910390a350505050565b60095481565b600080610bf4836116a9565b9050600073ffffffffffffffffffffffffffffffffffffffff168173ffffffffffffffffffffffffffffffffffffffff1603610c65576040517f08c379a0000000000000000000000000000000000000000000000000000000008152600401610c5c90612df0565b60405180910390fd5b80915050919050565b60008073ffffffffffffffffffffffffffffffffffffffff168273ffffffffffffffffffffffffffffffffffffffff1603610cde576040517f08c379a0000000000000000000000000000000000000000000000000000000008152600401610cd590612e82565b60405180910390fd5b600360008373ffffffffffffffffffffffffffffffffffffffff1673ffffffffffffffffffffffffffffffffffffffff168152602001908152602001600020549050919050565b610d2d6115a0565b610d3760006116e6565b565b6000600760009054906101000a900473ffffffffffffffffffffffffffffffffffffffff16905090565b606060018054610d7290612798565b80601f0160208091040260200160405190810160405280929190818152602001828054610d9e90612798565b8015610deb5780601f10610dc057610100808354040283529160200191610deb565b820191906000526020600020905b815481529060010190602001808311610dce57829003601f168201915b5050505050905090565b610e07610e00611151565b83836117ac565b5050565b610e1c610e16611151565b83611212565b610e5b576040517f08c379a0000000000000000000000000000000000000000000000000000000008152600401610e529061295f565b60405180910390fd5b610e6784848484611918565b50505050565b6060610e7882611106565b6000600660008481526020019081526020016000208054610e9890612798565b80601f0160208091040260200160405190810160405280929190818152602001828054610ec490612798565b8015610f115780601f10610ee657610100808354040283529160200191610f11565b820191906000526020600020905b815481529060010190602001808311610ef457829003601f168201915b505050505090506000610f22611974565b90506000815103610f37578192505050610f7a565b600082511115610f6c578082604051602001610f54929190612ede565b60405160208183030381529060405292505050610f7a565b610f758461198b565b925050505b919050565b60085481565b6000600560008473ffffffffffffffffffffffffffffffffffffffff1673ffffffffffffffffffffffffffffffffffffffff16815260200190815260200160002060008373ffffffffffffffffffffffffffffffffffffffff1673ffffffffffffffffffffffffffffffffffffffff16815260200190815260200160002060009054906101000a900460ff16905092915050565b6110216115a0565b600073ffffffffffffffffffffffffffffffffffffffff168173ffffffffffffffffffffffffffffffffffffffff1603611090576040517f08c379a000000000000000000000000000000000000000000000000000000000815260040161108790612f74565b60405180910390fd5b611099816116e6565b50565b60007f01ffc9a7000000000000000000000000000000000000000000000000000000007bffffffffffffffffffffffffffffffffffffffffffffffffffffffff1916827bffffffffffffffffffffffffffffffffffffffffffffffffffffffff1916149050919050565b61110f816119f3565b61114e576040517f08c379a000000000000000000000000000000000000000000000000000000000815260040161114590612df0565b60405180910390fd5b50565b600033905090565b816004600083815260200190815260200160002060006101000a81548173ffffffffffffffffffffffffffffffffffffffff021916908373ffffffffffffffffffffffffffffffffffffffff160217905550808273ffffffffffffffffffffffffffffffffffffffff166111cc83610be8565b73ffffffffffffffffffffffffffffffffffffffff167f8c5be1e5ebec7d5bd14f71427d1e84f3dd0314c0f7b2291e5b200ac8c7c3b92560405160405180910390a45050565b60008061121e83610be8565b90508073ffffffffffffffffffffffffffffffffffffffff168473ffffffffffffffffffffffffffffffffffffffff161480611260575061125f8185610f85565b5b8061129e57508373ffffffffffffffffffffffffffffffffffffffff16611286846106ad565b73ffffffffffffffffffffffffffffffffffffffff16145b91505092915050565b8273ffffffffffffffffffffffffffffffffffffffff166112c782610be8565b73ffffffffffffffffffffffffffffffffffffffff161461131d576040517f08c379a000000000000000000000000000000000000000000000000000000000815260040161131490613006565b60405180910390fd5b600073ffffffffffffffffffffffffffffffffffffffff168273ffffffffffffffffffffffffffffffffffffffff160361138c576040517f08c379a000000000000000000000000000000000000000000000000000000000815260040161138390613098565b60405180910390fd5b6113998383836001611a34565b8273ffffffffffffffffffffffffffffffffffffffff166113b982610be8565b73ffffffffffffffffffffffffffffffffffffffff161461140f576040517f08c379a000000000000000000000000000000000000000000000000000000000815260040161140690613006565b60405180910390fd5b6004600082815260200190815260200160002060006101000a81549073ffffffffffffffffffffffffffffffffffffffff02191690556001600360008573ffffffffffffffffffffffffffffffffffffffff1673ffffffffffffffffffffffffffffffffffffffff168152602001908152602001600020600082825403925050819055506001600360008473ffffffffffffffffffffffffffffffffffffffff1673ffffffffffffffffffffffffffffffffffffffff16815260200190815260200160002060008282540192505081905550816002600083815260200190815260200160002060006101000a81548173ffffffffffffffffffffffffffffffffffffffff021916908373ffffffffffffffffffffffffffffffffffffffff160217905550808273ffffffffffffffffffffffffffffffffffffffff168473ffffffffffffffffffffffffffffffffffffffff167fddf252ad1be2c89b69c2b068fc378daa952ba7f163c4a11628f55a4df523b3ef60405160405180910390a461159b8383836001611a3a565b505050565b6115a8611151565b73ffffffffffffffffffffffffffffffffffffffff166115c6610d39565b73ffffffffffffffffffffffffffffffffffffffff161461161c576040517f08c379a000000000000000000000000000000000000000000000000000000000815260040161161390613104565b60405180910390fd5b565b611638828260405180602001604052806000815250611a40565b5050565b611645826119f3565b611684576040517f08c379a000000000000000000000000000000000000000000000000000000000815260040161167b90613196565b60405180910390fd5b806006600084815260200190815260200160002090816116a49190612c6f565b505050565b60006002600083815260200190815260200160002060009054906101000a900473ffffffffffffffffffffffffffffffffffffffff169050919050565b6000600760009054906101000a900473ffffffffffffffffffffffffffffffffffffffff16905081600760006101000a81548173ffffffffffffffffffffffffffffffffffffffff021916908373ffffffffffffffffffffffffffffffffffffffff1602179055508173ffffffffffffffffffffffffffffffffffffffff168173ffffffffffffffffffffffffffffffffffffffff167f8be0079c531659141344cd1fd0a4f28419497f9722a3daafe3b4186f6b6457e060405160405180910390a35050565b8173ffffffffffffffffffffffffffffffffffffffff168373ffffffffffffffffffffffffffffffffffffffff160361181a576040517f08c379a000000000000000000000000000000000000000000000000000000000815260040161181190613202565b60405180910390fd5b80600560008573ffffffffffffffffffffffffffffffffffffffff1673ffffffffffffffffffffffffffffffffffffffff16815260200190815260200160002060008473ffffffffffffffffffffffffffffffffffffffff1673ffffffffffffffffffffffffffffffffffffffff16815260200190815260200160002060006101000a81548160ff0219169083151502179055508173ffffffffffffffffffffffffffffffffffffffff168373ffffffffffffffffffffffffffffffffffffffff167f17307eab39ab6107e8899845ad3d59bd9653f200f220920489ca2b5937696c318360405161190b9190612137565b60405180910390a3505050565b6119238484846112a7565b61192f84848484611a9b565b61196e576040517f08c379a000000000000000000000000000000000000000000000000000000000815260040161196590613294565b60405180910390fd5b50505050565b606060405180602001604052806000815250905090565b606061199682611106565b60006119a0611974565b905060008151116119c057604051806020016040528060008152506119eb565b806119ca84611c22565b6040516020016119db929190612ede565b6040516020818303038152906040525b915050919050565b60008073ffffffffffffffffffffffffffffffffffffffff16611a15836116a9565b73ffffffffffffffffffffffffffffffffffffffff1614159050919050565b50505050565b50505050565b611a4a8383611cf0565b611a576000848484611a9b565b611a96576040517f08c379a0000000000000000000000000000000000000000000000000000000008152600401611a8d90613294565b60405180910390fd5b505050565b6000611abc8473ffffffffffffffffffffffffffffffffffffffff16611f0d565b15611c15578373ffffffffffffffffffffffffffffffffffffffff1663150b7a02611ae5611151565b8786866040518563ffffffff1660e01b8152600401611b079493929190613309565b6020604051808303816000875af1925050508015611b4357506040513d601f19601f82011682018060405250810190611b40919061336a565b60015b611bc5573d8060008114611b73576040519150601f19603f3d011682016040523d82523d6000602084013e611b78565b606091505b506000815103611bbd576040517f08c379a0000000000000000000000000000000000000000000000000000000008152600401611bb490613294565b60405180910390fd5b805181602001fd5b63150b7a0260e01b7bffffffffffffffffffffffffffffffffffffffffffffffffffffffff1916817bffffffffffffffffffffffffffffffffffffffffffffffffffffffff191614915050611c1a565b600190505b949350505050565b606060006001611c3184611f30565b01905060008167ffffffffffffffff811115611c5057611c4f61238c565b5b6040519080825280601f01601f191660200182016040528015611c825781602001600182028036833780820191505090505b509050600082602001820190505b600115611ce5578080600190039150507f3031323334353637383961626364656600000000000000000000000000000000600a86061a8153600a8581611cd957611cd8613397565b5b04945060008503611c90575b819350505050919050565b600073ffffffffffffffffffffffffffffffffffffffff168273ffffffffffffffffffffffffffffffffffffffff1603611d5f576040517f08c379a0000000000000000000000000000000000000000000000000000000008152600401611d5690613412565b60405180910390fd5b611d68816119f3565b15611da8576040517f08c379a0000000000000000000000000000000000000000000000000000000008152600401611d9f9061347e565b60405180910390fd5b611db6600083836001611a34565b611dbf816119f3565b15611dff576040517f08c379a0000000000000000000000000000000000000000000000000000000008152600401611df69061347e565b60405180910390fd5b6001600360008473ffffffffffffffffffffffffffffffffffffffff1673ffffffffffffffffffffffffffffffffffffffff16815260200190815260200160002060008282540192505081905550816002600083815260200190815260200160002060006101000a81548173ffffffffffffffffffffffffffffffffffffffff021916908373ffffffffffffffffffffffffffffffffffffffff160217905550808273ffffffffffffffffffffffffffffffffffffffff16600073ffffffffffffffffffffffffffffffffffffffff167fddf252ad1be2c89b69c2b068fc378daa952ba7f163c4a11628f55a4df523b3ef60405160405180910390a4611f09600083836001611a3a565b5050565b6000808273ffffffffffffffffffffffffffffffffffffffff163b119050919050565b600080600090507a184f03e93ff9f4daa797ed6e38ed64bf6a1f0100000000000000008310611f8e577a184f03e93ff9f4daa797ed6e38ed64bf6a1f0100000000000000008381611f8457611f83613397565b5b0492506040810190505b6d04ee2d6d415b85acef81000000008310611fcb576d04ee2d6d415b85acef81000000008381611fc157611fc0613397565b5b0492506020810190505b662386f26fc100008310611ffa57662386f26fc100008381611ff057611fef613397565b5b0492506010810190505b6305f5e1008310612023576305f5e100838161201957612018613397565b5b0492506008810190505b612710831061204857612710838161203e5761203d613397565b5b0492506004810190505b6064831061206b576064838161206157612060613397565b5b0492506002810190505b600a831061207a576001810190505b80915050919050565b6000604051905090565b600080fd5b600080fd5b60007fffffffff0000000000000000000000000000000000000000000000000000000082169050919050565b6120cc81612097565b81146120d757600080fd5b50565b6000813590506120e9816120c3565b92915050565b6000602082840312156121055761210461208d565b5b6000612113848285016120da565b91505092915050565b60008115159050919050565b6121318161211c565b82525050565b600060208201905061214c6000830184612128565b92915050565b600081519050919050565b600082825260208201905092915050565b60005b8381101561218c578082015181840152602081019050612171565b60008484015250505050565b6000601f19601f8301169050919050565b60006121b482612152565b6121be818561215d565b93506121ce81856020860161216e565b6121d781612198565b840191505092915050565b600060208201905081810360008301526121fc81846121a9565b905092915050565b6000819050919050565b61221781612204565b811461222257600080fd5b50565b6000813590506122348161220e565b92915050565b6000602082840312156122505761224f61208d565b5b600061225e84828501612225565b91505092915050565b600073ffffffffffffffffffffffffffffffffffffffff82169050919050565b600061229282612267565b9050919050565b6122a281612287565b82525050565b60006020820190506122bd6000830184612299565b92915050565b6122cc81612287565b81146122d757600080fd5b50565b6000813590506122e9816122c3565b92915050565b600080604083850312156123065761230561208d565b5b6000612314858286016122da565b925050602061232585828601612225565b9150509250929050565b6000806000606084860312156123485761234761208d565b5b6000612356868287016122da565b9350506020612367868287016122da565b925050604061237886828701612225565b9150509250925092565b600080fd5b600080fd5b7f4e487b7100000000000000000000000000000000000000000000000000000000600052604160045260246000fd5b6123c482612198565b810181811067ffffffffffffffff821117156123e3576123e261238c565b5b80604052505050565b60006123f6612083565b905061240282826123bb565b919050565b600067ffffffffffffffff8211156124225761242161238c565b5b61242b82612198565b9050602081019050919050565b82818337600083830152505050565b600061245a61245584612407565b6123ec565b90508281526020810184848401111561247657612475612387565b5b612481848285612438565b509392505050565b600082601f83011261249e5761249d612382565b5b81356124ae848260208601612447565b91505092915050565b6000806000606084860312156124d0576124cf61208d565b5b60006124de868287016122da565b935050602084013567ffffffffffffffff8111156124ff576124fe612092565b5b61250b86828701612489565b925050604084013567ffffffffffffffff81111561252c5761252b612092565b5b61253886828701612489565b9150509250925092565b61254b81612204565b82525050565b60006020820190506125666000830184612542565b92915050565b6000602082840312156125825761258161208d565b5b6000612590848285016122da565b91505092915050565b6125a28161211c565b81146125ad57600080fd5b50565b6000813590506125bf81612599565b92915050565b600080604083850312156125dc576125db61208d565b5b60006125ea858286016122da565b92505060206125fb858286016125b0565b9150509250929050565b600067ffffffffffffffff8211156126205761261f61238c565b5b61262982612198565b9050602081019050919050565b600061264961264484612605565b6123ec565b90508281526020810184848401111561266557612664612387565b5b612670848285612438565b509392505050565b600082601f83011261268d5761268c612382565b5b813561269d848260208601612636565b91505092915050565b600080600080608085870312156126c0576126bf61208d565b5b60006126ce878288016122da565b94505060206126df878288016122da565b93505060406126f087828801612225565b925050606085013567ffffffffffffffff81111561271157612710612092565b5b61271d87828801612678565b91505092959194509250565b600080604083850312156127405761273f61208d565b5b600061274e858286016122da565b925050602061275f858286016122da565b9150509250929050565b7f4e487b7100000000000000000000000000000000000000000000000000000000600052602260045260246000fd5b600060028204905060018216806127b057607f821691505b6020821081036127c3576127c2612769565b5b50919050565b7f4552433732313a20617070726f76616c20746f2063757272656e74206f776e6560008201527f7200000000000000000000000000000000000000000000000000000000000000602082015250565b600061282560218361215d565b9150612830826127c9565b604082019050919050565b6000602082019050818103600083015261285481612818565b9050919050565b7f4552433732313a20617070726f76652063616c6c6572206973206e6f7420746f60008201527f6b656e206f776e6572206f7220617070726f76656420666f7220616c6c000000602082015250565b60006128b7603d8361215d565b91506128c28261285b565b604082019050919050565b600060208201905081810360008301526128e6816128aa565b9050919050565b7f4552433732313a2063616c6c6572206973206e6f7420746f6b656e206f776e6560008201527f72206f7220617070726f76656400000000000000000000000000000000000000602082015250565b6000612949602d8361215d565b9150612954826128ed565b604082019050919050565b600060208201905081810360008301526129788161293c565b9050919050565b7f4e6f2066756e647320746f207769746864726177000000000000000000000000600082015250565b60006129b560148361215d565b91506129c08261297f565b602082019050919050565b600060208201905081810360008301526129e4816129a8565b9050919050565b7f536b696c6c206e616d652063616e6e6f7420626520656d707479000000000000600082015250565b6000612a21601a8361215d565b9150612a2c826129eb565b602082019050919050565b60006020820190508181036000830152612a5081612a14565b9050919050565b7f4e6f7420656e6f7567682045544820746f206d696e7420746865204e46540000600082015250565b6000612a8d601e8361215d565b9150612a9882612a57565b602082019050919050565b60006020820190508181036000830152612abc81612a80565b9050919050565b60008190508160005260206000209050919050565b60006020601f8301049050919050565b600082821b905092915050565b600060088302612b257fffffffffffffffffffffffffffffffffffffffffffffffffffffffffffffffff82612ae8565b612b2f8683612ae8565b95508019841693508086168417925050509392505050565b6000819050919050565b6000612b6c612b67612b6284612204565b612b47565b612204565b9050919050565b6000819050919050565b612b8683612b51565b612b9a612b9282612b73565b848454612af5565b825550505050565b600090565b612baf612ba2565b612bba818484612b7d565b505050565b5b81811015612bde57612bd3600082612ba7565b600181019050612bc0565b5050565b601f821115612c2357612bf481612ac3565b612bfd84612ad8565b81016020851015612c0c578190505b612c20612c1885612ad8565b830182612bbf565b50505b505050565b600082821c905092915050565b6000612c4660001984600802612c28565b1980831691505092915050565b6000612c5f8383612c35565b9150826002028217905092915050565b612c7882612152565b67ffffffffffffffff811115612c9157612c9061238c565b5b612c9b8254612798565b612ca6828285612be2565b600060209050601f831160018114612cd95760008415612cc7578287015190505b612cd18582612c53565b865550612d39565b601f198416612ce786612ac3565b60005b82811015612d0f57848901518255600182019150602085019450602081019050612cea565b86831015612d2c5784890151612d28601f891682612c35565b8355505b6001600288020188555050505b505050505050565b7f4e487b7100000000000000000000000000000000000000000000000000000000600052601160045260246000fd5b6000612d7b82612204565b9150612d8683612204565b9250828201905080821115612d9e57612d9d612d41565b5b92915050565b7f4552433732313a20696e76616c696420746f6b656e2049440000000000000000600082015250565b6000612dda60188361215d565b9150612de582612da4565b602082019050919050565b60006020820190508181036000830152612e0981612dcd565b9050919050565b7f4552433732313a2061646472657373207a65726f206973206e6f74206120766160008201527f6c6964206f776e65720000000000000000000000000000000000000000000000602082015250565b6000612e6c60298361215d565b9150612e7782612e10565b604082019050919050565b60006020820190508181036000830152612e9b81612e5f565b9050919050565b600081905092915050565b6000612eb882612152565b612ec28185612ea2565b9350612ed281856020860161216e565b80840191505092915050565b6000612eea8285612ead565b9150612ef68284612ead565b91508190509392505050565b7f4f776e61626c653a206e6577206f776e657220697320746865207a65726f206160008201527f6464726573730000000000000000000000000000000000000000000000000000602082015250565b6000612f5e60268361215d565b9150612f6982612f02565b604082019050919050565b60006020820190508181036000830152612f8d81612f51565b9050919050565b7f4552433732313a207472616e736665722066726f6d20696e636f72726563742060008201527f6f776e6572000000000000000000000000000000000000000000000000000000602082015250565b6000612ff060258361215d565b9150612ffb82612f94565b604082019050919050565b6000602082019050818103600083015261301f81612fe3565b9050919050565b7f4552433732313a207472616e7366657220746f20746865207a65726f2061646460008201527f7265737300000000000000000000000000000000000000000000000000000000602082015250565b600061308260248361215d565b915061308d82613026565b604082019050919050565b600060208201905081810360008301526130b181613075565b9050919050565b7f4f776e61626c653a2063616c6c6572206973206e6f7420746865206f776e6572600082015250565b60006130ee60208361215d565b91506130f9826130b8565b602082019050919050565b6000602082019050818103600083015261311d816130e1565b9050919050565b7f45524337323155524953746f726167653a2055524920736574206f66206e6f6e60008201527f6578697374656e7420746f6b656e000000000000000000000000000000000000602082015250565b6000613180602e8361215d565b915061318b82613124565b604082019050919050565b600060208201905081810360008301526131af81613173565b9050919050565b7f4552433732313a20617070726f766520746f2063616c6c657200000000000000600082015250565b60006131ec60198361215d565b91506131f7826131b6565b602082019050919050565b6000602082019050818103600083015261321b816131df565b9050919050565b7f4552433732313a207472616e7366657220746f206e6f6e20455243373231526560008201527f63656976657220696d706c656d656e7465720000000000000000000000000000602082015250565b600061327e60328361215d565b915061328982613222565b604082019050919050565b600060208201905081810360008301526132ad81613271565b9050919050565b600081519050919050565b600082825260208201905092915050565b60006132db826132b4565b6132e581856132bf565b93506132f581856020860161216e565b6132fe81612198565b840191505092915050565b600060808201905061331e6000830187612299565b61332b6020830186612299565b6133386040830185612542565b818103606083015261334a81846132d0565b905095945050505050565b600081519050613364816120c3565b92915050565b6000602082840312156133805761337f61208d565b5b600061338e84828501613355565b91505092915050565b7f4e487b7100000000000000000000000000000000000000000000000000000000600052601260045260246000fd5b7f4552433732313a206d696e7420746f20746865207a65726f2061646472657373600082015250565b60006133fc60208361215d565b9150613407826133c6565b602082019050919050565b6000602082019050818103600083015261342b816133ef565b9050919050565b7f4552433732313a20746f6b656e20616c7265616479206d696e74656400000000600082015250565b6000613468601c8361215d565b915061347382613432565b602082019050919050565b600060208201905081810360008301526134978161345b565b905091905056fea2646970667358221220ed341dbd89dac6b1d2dbc30706eb8bc4f0d5cc8d92aeeb32803109c0a6d0495864736f6c63430008130033",
  "immutableReferences": {},
  "source": "// SPDX-License-Identifier: MIT\r\npragma solidity ^0.8.19;\r\n\r\nimport \"@openzeppelin/contracts/token/ERC721/extensions/ERC721URIStorage.sol\";\r\nimport \"@openzeppelin/contracts/access/Ownable.sol\";\r\n\r\ncontract ProofOfSkill is ERC721URIStorage, Ownable {\r\n    uint256 public tokenCounter;\r\n    uint256 public mintingFee;\r\n\r\n    struct Skill {\r\n        string skillName;\r\n    }\r\n\r\n    mapping(uint256 => Skill) public tokenIdToSkill;\r\n\r\n    constructor(uint256 _mintingFee) ERC721(\"ProofOfSkill\", \"POS\") {\r\n        tokenCounter = 0;\r\n        mintingFee = _mintingFee;\r\n    }\r\n\r\n    function mintSkillNFT(address recipient, string memory skillName, string memory tokenURI) public payable {\r\n        require(bytes(skillName).length > 0, \"Skill name cannot be empty\");\r\n        require(msg.value >= mintingFee, \"Not enough ETH to mint the NFT\");\r\n        \r\n        uint256 newItemId = tokenCounter;\r\n        _safeMint(recipient, newItemId);\r\n        _setTokenURI(newItemId, tokenURI);\r\n        tokenIdToSkill[newItemId] = Skill(skillName);\r\n        tokenCounter += 1;\r\n        \r\n        emit MintedNFT(recipient, newItemId, msg.value);\r\n    }\r\n        \r\n    event MintedNFT(address indexed recipient, uint256 indexed tokenId, uint256 value);\r\n\r\n\r\n    function withdraw() public onlyOwner {\r\n        uint256 balance = address(this).balance;\r\n        require(balance > 0, \"No funds to withdraw\");\r\n        payable(owner()).transfer(balance);\r\n    }\r\n\r\n    function getSkillDetails(uint256 tokenId) public view returns (string memory skillName) {\r\n        Skill memory skill = tokenIdToSkill[tokenId];\r\n        return skill.skillName;\r\n    }\r\n}\r\n",
  "sourcePath": "D:\\Tem\\Engage Hack\\Engage Hackathon\\Engage-Hackathon\\contracts\\ProofOfSkill.sol",
  "compiler": {
    "name": "solc",
    "version": "0.8.19+commit.7dd6d404.Emscripten.clang"
  },
  "schemaVersion": "3.4.15",
  "updatedAt": "2024-10-25T22:33:37.845Z",
  "networkType": "ethereum",
  "devdoc": {
    "events": {
      "Approval(address,address,uint256)": {
        "details": "Emitted when `owner` enables `approved` to manage the `tokenId` token."
      },
      "ApprovalForAll(address,address,bool)": {
        "details": "Emitted when `owner` enables or disables (`approved`) `operator` to manage all of its assets."
      },
      "Transfer(address,address,uint256)": {
        "details": "Emitted when `tokenId` token is transferred from `from` to `to`."
      }
    },
    "kind": "dev",
    "methods": {
      "approve(address,uint256)": {
        "details": "See {IERC721-approve}."
      },
      "balanceOf(address)": {
        "details": "See {IERC721-balanceOf}."
      },
      "getApproved(uint256)": {
        "details": "See {IERC721-getApproved}."
      },
      "isApprovedForAll(address,address)": {
        "details": "See {IERC721-isApprovedForAll}."
      },
      "name()": {
        "details": "See {IERC721Metadata-name}."
      },
      "owner()": {
        "details": "Returns the address of the current owner."
      },
      "ownerOf(uint256)": {
        "details": "See {IERC721-ownerOf}."
      },
      "renounceOwnership()": {
        "details": "Leaves the contract without owner. It will not be possible to call `onlyOwner` functions anymore. Can only be called by the current owner. NOTE: Renouncing ownership will leave the contract without an owner, thereby removing any functionality that is only available to the owner."
      },
      "safeTransferFrom(address,address,uint256)": {
        "details": "See {IERC721-safeTransferFrom}."
      },
      "safeTransferFrom(address,address,uint256,bytes)": {
        "details": "See {IERC721-safeTransferFrom}."
      },
      "setApprovalForAll(address,bool)": {
        "details": "See {IERC721-setApprovalForAll}."
      },
      "supportsInterface(bytes4)": {
        "details": "See {IERC165-supportsInterface}."
      },
      "symbol()": {
        "details": "See {IERC721Metadata-symbol}."
      },
      "tokenURI(uint256)": {
        "details": "See {IERC721Metadata-tokenURI}."
      },
      "transferFrom(address,address,uint256)": {
        "details": "See {IERC721-transferFrom}."
      },
      "transferOwnership(address)": {
        "details": "Transfers ownership of the contract to a new account (`newOwner`). Can only be called by the current owner."
      }
    },
    "version": 1
  },
  "userdoc": {
    "kind": "user",
    "methods": {},
    "version": 1
  }
}