{
  "contractName": "ProofOfSkill",
  "abi": [
    {
      "inputs": [
        {
          "internalType": "uint256",
          "name": "_mintingFee",
          "type": "uint256"
        }
      ],
      "stateMutability": "nonpayable",
      "type": "constructor"
    },
    {
      "anonymous": false,
      "inputs": [
        {
          "indexed": true,
          "internalType": "address",
          "name": "owner",
          "type": "address"
        },
        {
          "indexed": true,
          "internalType": "address",
          "name": "approved",
          "type": "address"
        },
        {
          "indexed": true,
          "internalType": "uint256",
          "name": "tokenId",
          "type": "uint256"
        }
      ],
      "name": "Approval",
      "type": "event"
    },
    {
      "anonymous": false,
      "inputs": [
        {
          "indexed": true,
          "internalType": "address",
          "name": "owner",
          "type": "address"
        },
        {
          "indexed": true,
          "internalType": "address",
          "name": "operator",
          "type": "address"
        },
        {
          "indexed": false,
          "internalType": "bool",
          "name": "approved",
          "type": "bool"
        }
      ],
      "name": "ApprovalForAll",
      "type": "event"
    },
    {
      "anonymous": false,
      "inputs": [
        {
          "indexed": true,
          "internalType": "address",
          "name": "previousOwner",
          "type": "address"
        },
        {
          "indexed": true,
          "internalType": "address",
          "name": "newOwner",
          "type": "address"
        }
      ],
      "name": "OwnershipTransferred",
      "type": "event"
    },
    {
      "anonymous": false,
      "inputs": [
        {
          "indexed": true,
          "internalType": "address",
          "name": "from",
          "type": "address"
        },
        {
          "indexed": true,
          "internalType": "address",
          "name": "to",
          "type": "address"
        },
        {
          "indexed": true,
          "internalType": "uint256",
          "name": "tokenId",
          "type": "uint256"
        }
      ],
      "name": "Transfer",
      "type": "event"
    },
    {
      "inputs": [
        {
          "internalType": "address",
          "name": "to",
          "type": "address"
        },
        {
          "internalType": "uint256",
          "name": "tokenId",
          "type": "uint256"
        }
      ],
      "name": "approve",
      "outputs": [],
      "stateMutability": "nonpayable",
      "type": "function"
    },
    {
      "inputs": [
        {
          "internalType": "address",
          "name": "owner",
          "type": "address"
        }
      ],
      "name": "balanceOf",
      "outputs": [
        {
          "internalType": "uint256",
          "name": "",
          "type": "uint256"
        }
      ],
      "stateMutability": "view",
      "type": "function",
      "constant": true
    },
    {
      "inputs": [
        {
          "internalType": "uint256",
          "name": "tokenId",
          "type": "uint256"
        }
      ],
      "name": "getApproved",
      "outputs": [
        {
          "internalType": "address",
          "name": "",
          "type": "address"
        }
      ],
      "stateMutability": "view",
      "type": "function",
      "constant": true
    },
    {
      "inputs": [
        {
          "internalType": "address",
          "name": "owner",
          "type": "address"
        },
        {
          "internalType": "address",
          "name": "operator",
          "type": "address"
        }
      ],
      "name": "isApprovedForAll",
      "outputs": [
        {
          "internalType": "bool",
          "name": "",
          "type": "bool"
        }
      ],
      "stateMutability": "view",
      "type": "function",
      "constant": true
    },
    {
      "inputs": [],
      "name": "mintingFee",
      "outputs": [
        {
          "internalType": "uint256",
          "name": "",
          "type": "uint256"
        }
      ],
      "stateMutability": "view",
      "type": "function",
      "constant": true
    },
    {
      "inputs": [],
      "name": "name",
      "outputs": [
        {
          "internalType": "string",
          "name": "",
          "type": "string"
        }
      ],
      "stateMutability": "view",
      "type": "function",
      "constant": true
    },
    {
      "inputs": [],
      "name": "owner",
      "outputs": [
        {
          "internalType": "address",
          "name": "",
          "type": "address"
        }
      ],
      "stateMutability": "view",
      "type": "function",
      "constant": true
    },
    {
      "inputs": [
        {
          "internalType": "uint256",
          "name": "tokenId",
          "type": "uint256"
        }
      ],
      "name": "ownerOf",
      "outputs": [
        {
          "internalType": "address",
          "name": "",
          "type": "address"
        }
      ],
      "stateMutability": "view",
      "type": "function",
      "constant": true
    },
    {
      "inputs": [],
      "name": "renounceOwnership",
      "outputs": [],
      "stateMutability": "nonpayable",
      "type": "function"
    },
    {
      "inputs": [
        {
          "internalType": "address",
          "name": "from",
          "type": "address"
        },
        {
          "internalType": "address",
          "name": "to",
          "type": "address"
        },
        {
          "internalType": "uint256",
          "name": "tokenId",
          "type": "uint256"
        }
      ],
      "name": "safeTransferFrom",
      "outputs": [],
      "stateMutability": "nonpayable",
      "type": "function"
    },
    {
      "inputs": [
        {
          "internalType": "address",
          "name": "from",
          "type": "address"
        },
        {
          "internalType": "address",
          "name": "to",
          "type": "address"
        },
        {
          "internalType": "uint256",
          "name": "tokenId",
          "type": "uint256"
        },
        {
          "internalType": "bytes",
          "name": "data",
          "type": "bytes"
        }
      ],
      "name": "safeTransferFrom",
      "outputs": [],
      "stateMutability": "nonpayable",
      "type": "function"
    },
    {
      "inputs": [
        {
          "internalType": "address",
          "name": "operator",
          "type": "address"
        },
        {
          "internalType": "bool",
          "name": "approved",
          "type": "bool"
        }
      ],
      "name": "setApprovalForAll",
      "outputs": [],
      "stateMutability": "nonpayable",
      "type": "function"
    },
    {
      "inputs": [
        {
          "internalType": "bytes4",
          "name": "interfaceId",
          "type": "bytes4"
        }
      ],
      "name": "supportsInterface",
      "outputs": [
        {
          "internalType": "bool",
          "name": "",
          "type": "bool"
        }
      ],
      "stateMutability": "view",
      "type": "function",
      "constant": true
    },
    {
      "inputs": [],
      "name": "symbol",
      "outputs": [
        {
          "internalType": "string",
          "name": "",
          "type": "string"
        }
      ],
      "stateMutability": "view",
      "type": "function",
      "constant": true
    },
    {
      "inputs": [],
      "name": "tokenCounter",
      "outputs": [
        {
          "internalType": "uint256",
          "name": "",
          "type": "uint256"
        }
      ],
      "stateMutability": "view",
      "type": "function",
      "constant": true
    },
    {
      "inputs": [
        {
          "internalType": "uint256",
          "name": "",
          "type": "uint256"
        }
      ],
      "name": "tokenIdToSkill",
      "outputs": [
        {
          "internalType": "string",
          "name": "skillName",
          "type": "string"
        },
        {
          "internalType": "string",
          "name": "difficulty",
          "type": "string"
        }
      ],
      "stateMutability": "view",
      "type": "function",
      "constant": true
    },
    {
      "inputs": [
        {
          "internalType": "uint256",
          "name": "tokenId",
          "type": "uint256"
        }
      ],
      "name": "tokenURI",
      "outputs": [
        {
          "internalType": "string",
          "name": "",
          "type": "string"
        }
      ],
      "stateMutability": "view",
      "type": "function",
      "constant": true
    },
    {
      "inputs": [
        {
          "internalType": "address",
          "name": "from",
          "type": "address"
        },
        {
          "internalType": "address",
          "name": "to",
          "type": "address"
        },
        {
          "internalType": "uint256",
          "name": "tokenId",
          "type": "uint256"
        }
      ],
      "name": "transferFrom",
      "outputs": [],
      "stateMutability": "nonpayable",
      "type": "function"
    },
    {
      "inputs": [
        {
          "internalType": "address",
          "name": "newOwner",
          "type": "address"
        }
      ],
      "name": "transferOwnership",
      "outputs": [],
      "stateMutability": "nonpayable",
      "type": "function"
    },
    {
      "inputs": [
        {
          "internalType": "address",
          "name": "recipient",
          "type": "address"
        },
        {
          "internalType": "string",
          "name": "skillName",
          "type": "string"
        },
        {
          "internalType": "string",
          "name": "difficulty",
          "type": "string"
        },
        {
          "internalType": "string",
          "name": "tokenURI",
          "type": "string"
        }
      ],
      "name": "mintSkillNFT",
      "outputs": [],
      "stateMutability": "payable",
      "type": "function",
      "payable": true
    },
    {
      "inputs": [],
      "name": "withdraw",
      "outputs": [],
      "stateMutability": "nonpayable",
      "type": "function"
    },
    {
      "inputs": [
        {
          "internalType": "uint256",
          "name": "tokenId",
          "type": "uint256"
        }
      ],
      "name": "getSkillDetails",
      "outputs": [
        {
          "internalType": "string",
          "name": "skillName",
          "type": "string"
        },
        {
          "internalType": "string",
          "name": "difficulty",
          "type": "string"
        }
      ],
      "stateMutability": "view",
      "type": "function",
      "constant": true
    }
  ],
  "bytecode": "0x60806040523480156200001157600080fd5b5060405162003c8938038062003c8983398181016040528101906200003791906200020d565b6040518060400160405280600c81526020017f50726f6f664f66536b696c6c00000000000000000000000000000000000000008152506040518060400160405280600381526020017f504f5300000000000000000000000000000000000000000000000000000000008152508160009081620000b49190620004af565b508060019081620000c69190620004af565b505050620000e9620000dd620000ff60201b60201c565b6200010760201b60201c565b6000600881905550806009819055505062000596565b600033905090565b6000600760009054906101000a900473ffffffffffffffffffffffffffffffffffffffff16905081600760006101000a81548173ffffffffffffffffffffffffffffffffffffffff021916908373ffffffffffffffffffffffffffffffffffffffff1602179055508173ffffffffffffffffffffffffffffffffffffffff168173ffffffffffffffffffffffffffffffffffffffff167f8be0079c531659141344cd1fd0a4f28419497f9722a3daafe3b4186f6b6457e060405160405180910390a35050565b600080fd5b6000819050919050565b620001e781620001d2565b8114620001f357600080fd5b50565b6000815190506200020781620001dc565b92915050565b600060208284031215620002265762000225620001cd565b5b60006200023684828501620001f6565b91505092915050565b600081519050919050565b7f4e487b7100000000000000000000000000000000000000000000000000000000600052604160045260246000fd5b7f4e487b7100000000000000000000000000000000000000000000000000000000600052602260045260246000fd5b60006002820490506001821680620002c157607f821691505b602082108103620002d757620002d662000279565b5b50919050565b60008190508160005260206000209050919050565b60006020601f8301049050919050565b600082821b905092915050565b600060088302620003417fffffffffffffffffffffffffffffffffffffffffffffffffffffffffffffffff8262000302565b6200034d868362000302565b95508019841693508086168417925050509392505050565b6000819050919050565b6000620003906200038a6200038484620001d2565b62000365565b620001d2565b9050919050565b6000819050919050565b620003ac836200036f565b620003c4620003bb8262000397565b8484546200030f565b825550505050565b600090565b620003db620003cc565b620003e8818484620003a1565b505050565b5b81811015620004105762000404600082620003d1565b600181019050620003ee565b5050565b601f8211156200045f576200042981620002dd565b6200043484620002f2565b8101602085101562000444578190505b6200045c6200045385620002f2565b830182620003ed565b50505b505050565b600082821c905092915050565b6000620004846000198460080262000464565b1980831691505092915050565b60006200049f838362000471565b9150826002028217905092915050565b620004ba826200023f565b67ffffffffffffffff811115620004d657620004d56200024a565b5b620004e28254620002a8565b620004ef82828562000414565b600060209050601f83116001811462000527576000841562000512578287015190505b6200051e858262000491565b8655506200058e565b601f1984166200053786620002dd565b60005b8281101562000561578489015182556001820191506020850194506020810190506200053a565b868310156200058157848901516200057d601f89168262000471565b8355505b6001600288020188555050505b505050505050565b6136e380620005a66000396000f3fe6080604052600436106101355760003560e01c806370a08231116100ab578063b654d2c11161006f578063b654d2c114610428578063b88d4fde14610444578063c87b56dd1461046d578063d082e381146104aa578063e985e9c5146104d5578063f2fde38b1461051257610135565b806370a0823114610355578063715018a6146103925780638da5cb5b146103a957806395d89b41146103d4578063a22cb465146103ff57610135565b806323b872dd116100fd57806323b872dd14610246578063251134681461026f5780633ccfd60b146102ad57806342842e0e146102c45780635a64ad95146102ed5780636352211e1461031857610135565b806301ffc9a71461013a57806306fdde0314610177578063081812fc146101a2578063095ea7b3146101df5780630f4e35c714610208575b600080fd5b34801561014657600080fd5b50610161600480360381019061015c919061222b565b61053b565b60405161016e9190612273565b60405180910390f35b34801561018357600080fd5b5061018c61061d565b604051610199919061231e565b60405180910390f35b3480156101ae57600080fd5b506101c960048036038101906101c49190612376565b6106af565b6040516101d691906123e4565b60405180910390f35b3480156101eb57600080fd5b506102066004803603810190610201919061242b565b6106f5565b005b34801561021457600080fd5b5061022f600480360381019061022a9190612376565b61080c565b60405161023d92919061246b565b60405180910390f35b34801561025257600080fd5b5061026d600480360381019061026891906124a2565b610940565b005b34801561027b57600080fd5b5061029660048036038101906102919190612376565b6109a0565b6040516102a492919061246b565b60405180910390f35b3480156102b957600080fd5b506102c2610afd565b005b3480156102d057600080fd5b506102eb60048036038101906102e691906124a2565b610b9e565b005b3480156102f957600080fd5b50610302610bbe565b60405161030f9190612504565b60405180910390f35b34801561032457600080fd5b5061033f600480360381019061033a9190612376565b610bc4565b60405161034c91906123e4565b60405180910390f35b34801561036157600080fd5b5061037c6004803603810190610377919061251f565b610c4a565b6040516103899190612504565b60405180910390f35b34801561039e57600080fd5b506103a7610d01565b005b3480156103b557600080fd5b506103be610d15565b6040516103cb91906123e4565b60405180910390f35b3480156103e057600080fd5b506103e9610d3f565b6040516103f6919061231e565b60405180910390f35b34801561040b57600080fd5b5061042660048036038101906104219190612578565b610dd1565b005b610442600480360381019061043d91906126ed565b610de7565b005b34801561045057600080fd5b5061046b60048036038101906104669190612849565b610f47565b005b34801561047957600080fd5b50610494600480360381019061048f9190612376565b610fa9565b6040516104a1919061231e565b60405180910390f35b3480156104b657600080fd5b506104bf6110bb565b6040516104cc9190612504565b60405180910390f35b3480156104e157600080fd5b506104fc60048036038101906104f791906128cc565b6110c1565b6040516105099190612273565b60405180910390f35b34801561051e57600080fd5b506105396004803603810190610534919061251f565b611155565b005b60007f80ac58cd000000000000000000000000000000000000000000000000000000007bffffffffffffffffffffffffffffffffffffffffffffffffffffffff1916827bffffffffffffffffffffffffffffffffffffffffffffffffffffffff1916148061060657507f5b5e139f000000000000000000000000000000000000000000000000000000007bffffffffffffffffffffffffffffffffffffffffffffffffffffffff1916827bffffffffffffffffffffffffffffffffffffffffffffffffffffffff1916145b806106165750610615826111d8565b5b9050919050565b60606000805461062c9061293b565b80601f01602080910402602001604051908101604052809291908181526020018280546106589061293b565b80156106a55780601f1061067a576101008083540402835291602001916106a5565b820191906000526020600020905b81548152906001019060200180831161068857829003601f168201915b5050505050905090565b60006106ba82611242565b6004600083815260200190815260200160002060009054906101000a900473ffffffffffffffffffffffffffffffffffffffff169050919050565b600061070082610bc4565b90508073ffffffffffffffffffffffffffffffffffffffff168373ffffffffffffffffffffffffffffffffffffffff1603610770576040517f08c379a0000000000000000000000000000000000000000000000000000000008152600401610767906129de565b60405180910390fd5b8073ffffffffffffffffffffffffffffffffffffffff1661078f61128d565b73ffffffffffffffffffffffffffffffffffffffff1614806107be57506107bd816107b861128d565b6110c1565b5b6107fd576040517f08c379a00000000000000000000000000000000000000000000000000000000081526004016107f490612a70565b60405180910390fd5b6108078383611295565b505050565b600a60205280600052604060002060009150905080600001805461082f9061293b565b80601f016020809104026020016040519081016040528092919081815260200182805461085b9061293b565b80156108a85780601f1061087d576101008083540402835291602001916108a8565b820191906000526020600020905b81548152906001019060200180831161088b57829003601f168201915b5050505050908060010180546108bd9061293b565b80601f01602080910402602001604051908101604052809291908181526020018280546108e99061293b565b80156109365780601f1061090b57610100808354040283529160200191610936565b820191906000526020600020905b81548152906001019060200180831161091957829003601f168201915b5050505050905082565b61095161094b61128d565b8261134e565b610990576040517f08c379a000000000000000000000000000000000000000000000000000000000815260040161098790612b02565b60405180910390fd5b61099b8383836113e3565b505050565b6060806000600a60008581526020019081526020016000206040518060400160405290816000820180546109d39061293b565b80601f01602080910402602001604051908101604052809291908181526020018280546109ff9061293b565b8015610a4c5780601f10610a2157610100808354040283529160200191610a4c565b820191906000526020600020905b815481529060010190602001808311610a2f57829003601f168201915b50505050508152602001600182018054610a659061293b565b80601f0160208091040260200160405190810160405280929190818152602001828054610a919061293b565b8015610ade5780601f10610ab357610100808354040283529160200191610ade565b820191906000526020600020905b815481529060010190602001808311610ac157829003601f168201915b5050505050815250509050806000015181602001519250925050915091565b610b056116dc565b600047905060008111610b4d576040517f08c379a0000000000000000000000000000000000000000000000000000000008152600401610b4490612b6e565b60405180910390fd5b610b55610d15565b73ffffffffffffffffffffffffffffffffffffffff166108fc829081150290604051600060405180830381858888f19350505050158015610b9a573d6000803e3d6000fd5b5050565b610bb983838360405180602001604052806000815250610f47565b505050565b60095481565b600080610bd08361175a565b9050600073ffffffffffffffffffffffffffffffffffffffff168173ffffffffffffffffffffffffffffffffffffffff1603610c41576040517f08c379a0000000000000000000000000000000000000000000000000000000008152600401610c3890612bda565b60405180910390fd5b80915050919050565b60008073ffffffffffffffffffffffffffffffffffffffff168273ffffffffffffffffffffffffffffffffffffffff1603610cba576040517f08c379a0000000000000000000000000000000000000000000000000000000008152600401610cb190612c6c565b60405180910390fd5b600360008373ffffffffffffffffffffffffffffffffffffffff1673ffffffffffffffffffffffffffffffffffffffff168152602001908152602001600020549050919050565b610d096116dc565b610d136000611797565b565b6000600760009054906101000a900473ffffffffffffffffffffffffffffffffffffffff16905090565b606060018054610d4e9061293b565b80601f0160208091040260200160405190810160405280929190818152602001828054610d7a9061293b565b8015610dc75780601f10610d9c57610100808354040283529160200191610dc7565b820191906000526020600020905b815481529060010190602001808311610daa57829003601f168201915b5050505050905090565b610de3610ddc61128d565b838361185d565b5050565b6000835111610e2b576040517f08c379a0000000000000000000000000000000000000000000000000000000008152600401610e2290612cd8565b60405180910390fd5b6000825111610e6f576040517f08c379a0000000000000000000000000000000000000000000000000000000008152600401610e6690612d44565b60405180910390fd5b600954341015610eb4576040517f08c379a0000000000000000000000000000000000000000000000000000000008152600401610eab90612db0565b60405180910390fd5b60006008549050610ec585826119c9565b610ecf81836119e7565b604051806040016040528085815260200184815250600a60008381526020019081526020016000206000820151816000019081610f0c9190612f7c565b506020820151816001019081610f229190612f7c565b50905050600160086000828254610f39919061307d565b925050819055505050505050565b610f58610f5261128d565b8361134e565b610f97576040517f08c379a0000000000000000000000000000000000000000000000000000000008152600401610f8e90612b02565b60405180910390fd5b610fa384848484611a54565b50505050565b6060610fb482611242565b6000600660008481526020019081526020016000208054610fd49061293b565b80601f01602080910402602001604051908101604052809291908181526020018280546110009061293b565b801561104d5780601f106110225761010080835404028352916020019161104d565b820191906000526020600020905b81548152906001019060200180831161103057829003601f168201915b50505050509050600061105e611ab0565b905060008151036110735781925050506110b6565b6000825111156110a85780826040516020016110909291906130ed565b604051602081830303815290604052925050506110b6565b6110b184611ac7565b925050505b919050565b60085481565b6000600560008473ffffffffffffffffffffffffffffffffffffffff1673ffffffffffffffffffffffffffffffffffffffff16815260200190815260200160002060008373ffffffffffffffffffffffffffffffffffffffff1673ffffffffffffffffffffffffffffffffffffffff16815260200190815260200160002060009054906101000a900460ff16905092915050565b61115d6116dc565b600073ffffffffffffffffffffffffffffffffffffffff168173ffffffffffffffffffffffffffffffffffffffff16036111cc576040517f08c379a00000000000000000000000000000000000000000000000000000000081526004016111c390613183565b60405180910390fd5b6111d581611797565b50565b60007f01ffc9a7000000000000000000000000000000000000000000000000000000007bffffffffffffffffffffffffffffffffffffffffffffffffffffffff1916827bffffffffffffffffffffffffffffffffffffffffffffffffffffffff1916149050919050565b61124b81611b2f565b61128a576040517f08c379a000000000000000000000000000000000000000000000000000000000815260040161128190612bda565b60405180910390fd5b50565b600033905090565b816004600083815260200190815260200160002060006101000a81548173ffffffffffffffffffffffffffffffffffffffff021916908373ffffffffffffffffffffffffffffffffffffffff160217905550808273ffffffffffffffffffffffffffffffffffffffff1661130883610bc4565b73ffffffffffffffffffffffffffffffffffffffff167f8c5be1e5ebec7d5bd14f71427d1e84f3dd0314c0f7b2291e5b200ac8c7c3b92560405160405180910390a45050565b60008061135a83610bc4565b90508073ffffffffffffffffffffffffffffffffffffffff168473ffffffffffffffffffffffffffffffffffffffff16148061139c575061139b81856110c1565b5b806113da57508373ffffffffffffffffffffffffffffffffffffffff166113c2846106af565b73ffffffffffffffffffffffffffffffffffffffff16145b91505092915050565b8273ffffffffffffffffffffffffffffffffffffffff1661140382610bc4565b73ffffffffffffffffffffffffffffffffffffffff1614611459576040517f08c379a000000000000000000000000000000000000000000000000000000000815260040161145090613215565b60405180910390fd5b600073ffffffffffffffffffffffffffffffffffffffff168273ffffffffffffffffffffffffffffffffffffffff16036114c8576040517f08c379a00000000000000000000000000000000000000000000000000000000081526004016114bf906132a7565b60405180910390fd5b6114d58383836001611b70565b8273ffffffffffffffffffffffffffffffffffffffff166114f582610bc4565b73ffffffffffffffffffffffffffffffffffffffff161461154b576040517f08c379a000000000000000000000000000000000000000000000000000000000815260040161154290613215565b60405180910390fd5b6004600082815260200190815260200160002060006101000a81549073ffffffffffffffffffffffffffffffffffffffff02191690556001600360008573ffffffffffffffffffffffffffffffffffffffff1673ffffffffffffffffffffffffffffffffffffffff168152602001908152602001600020600082825403925050819055506001600360008473ffffffffffffffffffffffffffffffffffffffff1673ffffffffffffffffffffffffffffffffffffffff16815260200190815260200160002060008282540192505081905550816002600083815260200190815260200160002060006101000a81548173ffffffffffffffffffffffffffffffffffffffff021916908373ffffffffffffffffffffffffffffffffffffffff160217905550808273ffffffffffffffffffffffffffffffffffffffff168473ffffffffffffffffffffffffffffffffffffffff167fddf252ad1be2c89b69c2b068fc378daa952ba7f163c4a11628f55a4df523b3ef60405160405180910390a46116d78383836001611b76565b505050565b6116e461128d565b73ffffffffffffffffffffffffffffffffffffffff16611702610d15565b73ffffffffffffffffffffffffffffffffffffffff1614611758576040517f08c379a000000000000000000000000000000000000000000000000000000000815260040161174f90613313565b60405180910390fd5b565b60006002600083815260200190815260200160002060009054906101000a900473ffffffffffffffffffffffffffffffffffffffff169050919050565b6000600760009054906101000a900473ffffffffffffffffffffffffffffffffffffffff16905081600760006101000a81548173ffffffffffffffffffffffffffffffffffffffff021916908373ffffffffffffffffffffffffffffffffffffffff1602179055508173ffffffffffffffffffffffffffffffffffffffff168173ffffffffffffffffffffffffffffffffffffffff167f8be0079c531659141344cd1fd0a4f28419497f9722a3daafe3b4186f6b6457e060405160405180910390a35050565b8173ffffffffffffffffffffffffffffffffffffffff168373ffffffffffffffffffffffffffffffffffffffff16036118cb576040517f08c379a00000000000000000000000000000000000000000000000000000000081526004016118c29061337f565b60405180910390fd5b80600560008573ffffffffffffffffffffffffffffffffffffffff1673ffffffffffffffffffffffffffffffffffffffff16815260200190815260200160002060008473ffffffffffffffffffffffffffffffffffffffff1673ffffffffffffffffffffffffffffffffffffffff16815260200190815260200160002060006101000a81548160ff0219169083151502179055508173ffffffffffffffffffffffffffffffffffffffff168373ffffffffffffffffffffffffffffffffffffffff167f17307eab39ab6107e8899845ad3d59bd9653f200f220920489ca2b5937696c31836040516119bc9190612273565b60405180910390a3505050565b6119e3828260405180602001604052806000815250611b7c565b5050565b6119f082611b2f565b611a2f576040517f08c379a0000000000000000000000000000000000000000000000000000000008152600401611a2690613411565b60405180910390fd5b80600660008481526020019081526020016000209081611a4f9190612f7c565b505050565b611a5f8484846113e3565b611a6b84848484611bd7565b611aaa576040517f08c379a0000000000000000000000000000000000000000000000000000000008152600401611aa1906134a3565b60405180910390fd5b50505050565b606060405180602001604052806000815250905090565b6060611ad282611242565b6000611adc611ab0565b90506000815111611afc5760405180602001604052806000815250611b27565b80611b0684611d5e565b604051602001611b179291906130ed565b6040516020818303038152906040525b915050919050565b60008073ffffffffffffffffffffffffffffffffffffffff16611b518361175a565b73ffffffffffffffffffffffffffffffffffffffff1614159050919050565b50505050565b50505050565b611b868383611e2c565b611b936000848484611bd7565b611bd2576040517f08c379a0000000000000000000000000000000000000000000000000000000008152600401611bc9906134a3565b60405180910390fd5b505050565b6000611bf88473ffffffffffffffffffffffffffffffffffffffff16612049565b15611d51578373ffffffffffffffffffffffffffffffffffffffff1663150b7a02611c2161128d565b8786866040518563ffffffff1660e01b8152600401611c439493929190613518565b6020604051808303816000875af1925050508015611c7f57506040513d601f19601f82011682018060405250810190611c7c9190613579565b60015b611d01573d8060008114611caf576040519150601f19603f3d011682016040523d82523d6000602084013e611cb4565b606091505b506000815103611cf9576040517f08c379a0000000000000000000000000000000000000000000000000000000008152600401611cf0906134a3565b60405180910390fd5b805181602001fd5b63150b7a0260e01b7bffffffffffffffffffffffffffffffffffffffffffffffffffffffff1916817bffffffffffffffffffffffffffffffffffffffffffffffffffffffff191614915050611d56565b600190505b949350505050565b606060006001611d6d8461206c565b01905060008167ffffffffffffffff811115611d8c57611d8b6125c2565b5b6040519080825280601f01601f191660200182016040528015611dbe5781602001600182028036833780820191505090505b509050600082602001820190505b600115611e21578080600190039150507f3031323334353637383961626364656600000000000000000000000000000000600a86061a8153600a8581611e1557611e146135a6565b5b04945060008503611dcc575b819350505050919050565b600073ffffffffffffffffffffffffffffffffffffffff168273ffffffffffffffffffffffffffffffffffffffff1603611e9b576040517f08c379a0000000000000000000000000000000000000000000000000000000008152600401611e9290613621565b60405180910390fd5b611ea481611b2f565b15611ee4576040517f08c379a0000000000000000000000000000000000000000000000000000000008152600401611edb9061368d565b60405180910390fd5b611ef2600083836001611b70565b611efb81611b2f565b15611f3b576040517f08c379a0000000000000000000000000000000000000000000000000000000008152600401611f329061368d565b60405180910390fd5b6001600360008473ffffffffffffffffffffffffffffffffffffffff1673ffffffffffffffffffffffffffffffffffffffff16815260200190815260200160002060008282540192505081905550816002600083815260200190815260200160002060006101000a81548173ffffffffffffffffffffffffffffffffffffffff021916908373ffffffffffffffffffffffffffffffffffffffff160217905550808273ffffffffffffffffffffffffffffffffffffffff16600073ffffffffffffffffffffffffffffffffffffffff167fddf252ad1be2c89b69c2b068fc378daa952ba7f163c4a11628f55a4df523b3ef60405160405180910390a4612045600083836001611b76565b5050565b6000808273ffffffffffffffffffffffffffffffffffffffff163b119050919050565b600080600090507a184f03e93ff9f4daa797ed6e38ed64bf6a1f01000000000000000083106120ca577a184f03e93ff9f4daa797ed6e38ed64bf6a1f01000000000000000083816120c0576120bf6135a6565b5b0492506040810190505b6d04ee2d6d415b85acef81000000008310612107576d04ee2d6d415b85acef810000000083816120fd576120fc6135a6565b5b0492506020810190505b662386f26fc10000831061213657662386f26fc10000838161212c5761212b6135a6565b5b0492506010810190505b6305f5e100831061215f576305f5e1008381612155576121546135a6565b5b0492506008810190505b612710831061218457612710838161217a576121796135a6565b5b0492506004810190505b606483106121a7576064838161219d5761219c6135a6565b5b0492506002810190505b600a83106121b6576001810190505b80915050919050565b6000604051905090565b600080fd5b600080fd5b60007fffffffff0000000000000000000000000000000000000000000000000000000082169050919050565b612208816121d3565b811461221357600080fd5b50565b600081359050612225816121ff565b92915050565b600060208284031215612241576122406121c9565b5b600061224f84828501612216565b91505092915050565b60008115159050919050565b61226d81612258565b82525050565b60006020820190506122886000830184612264565b92915050565b600081519050919050565b600082825260208201905092915050565b60005b838110156122c85780820151818401526020810190506122ad565b60008484015250505050565b6000601f19601f8301169050919050565b60006122f08261228e565b6122fa8185612299565b935061230a8185602086016122aa565b612313816122d4565b840191505092915050565b6000602082019050818103600083015261233881846122e5565b905092915050565b6000819050919050565b61235381612340565b811461235e57600080fd5b50565b6000813590506123708161234a565b92915050565b60006020828403121561238c5761238b6121c9565b5b600061239a84828501612361565b91505092915050565b600073ffffffffffffffffffffffffffffffffffffffff82169050919050565b60006123ce826123a3565b9050919050565b6123de816123c3565b82525050565b60006020820190506123f960008301846123d5565b92915050565b612408816123c3565b811461241357600080fd5b50565b600081359050612425816123ff565b92915050565b60008060408385031215612442576124416121c9565b5b600061245085828601612416565b925050602061246185828601612361565b9150509250929050565b6000604082019050818103600083015261248581856122e5565b9050818103602083015261249981846122e5565b90509392505050565b6000806000606084860312156124bb576124ba6121c9565b5b60006124c986828701612416565b93505060206124da86828701612416565b92505060406124eb86828701612361565b9150509250925092565b6124fe81612340565b82525050565b600060208201905061251960008301846124f5565b92915050565b600060208284031215612535576125346121c9565b5b600061254384828501612416565b91505092915050565b61255581612258565b811461256057600080fd5b50565b6000813590506125728161254c565b92915050565b6000806040838503121561258f5761258e6121c9565b5b600061259d85828601612416565b92505060206125ae85828601612563565b9150509250929050565b600080fd5b600080fd5b7f4e487b7100000000000000000000000000000000000000000000000000000000600052604160045260246000fd5b6125fa826122d4565b810181811067ffffffffffffffff82111715612619576126186125c2565b5b80604052505050565b600061262c6121bf565b905061263882826125f1565b919050565b600067ffffffffffffffff821115612658576126576125c2565b5b612661826122d4565b9050602081019050919050565b82818337600083830152505050565b600061269061268b8461263d565b612622565b9050828152602081018484840111156126ac576126ab6125bd565b5b6126b784828561266e565b509392505050565b600082601f8301126126d4576126d36125b8565b5b81356126e484826020860161267d565b91505092915050565b60008060008060808587031215612707576127066121c9565b5b600061271587828801612416565b945050602085013567ffffffffffffffff811115612736576127356121ce565b5b612742878288016126bf565b935050604085013567ffffffffffffffff811115612763576127626121ce565b5b61276f878288016126bf565b925050606085013567ffffffffffffffff8111156127905761278f6121ce565b5b61279c878288016126bf565b91505092959194509250565b600067ffffffffffffffff8211156127c3576127c26125c2565b5b6127cc826122d4565b9050602081019050919050565b60006127ec6127e7846127a8565b612622565b905082815260208101848484011115612808576128076125bd565b5b61281384828561266e565b509392505050565b600082601f8301126128305761282f6125b8565b5b81356128408482602086016127d9565b91505092915050565b60008060008060808587031215612863576128626121c9565b5b600061287187828801612416565b945050602061288287828801612416565b935050604061289387828801612361565b925050606085013567ffffffffffffffff8111156128b4576128b36121ce565b5b6128c08782880161281b565b91505092959194509250565b600080604083850312156128e3576128e26121c9565b5b60006128f185828601612416565b925050602061290285828601612416565b9150509250929050565b7f4e487b7100000000000000000000000000000000000000000000000000000000600052602260045260246000fd5b6000600282049050600182168061295357607f821691505b6020821081036129665761296561290c565b5b50919050565b7f4552433732313a20617070726f76616c20746f2063757272656e74206f776e6560008201527f7200000000000000000000000000000000000000000000000000000000000000602082015250565b60006129c8602183612299565b91506129d38261296c565b604082019050919050565b600060208201905081810360008301526129f7816129bb565b9050919050565b7f4552433732313a20617070726f76652063616c6c6572206973206e6f7420746f60008201527f6b656e206f776e6572206f7220617070726f76656420666f7220616c6c000000602082015250565b6000612a5a603d83612299565b9150612a65826129fe565b604082019050919050565b60006020820190508181036000830152612a8981612a4d565b9050919050565b7f4552433732313a2063616c6c6572206973206e6f7420746f6b656e206f776e6560008201527f72206f7220617070726f76656400000000000000000000000000000000000000602082015250565b6000612aec602d83612299565b9150612af782612a90565b604082019050919050565b60006020820190508181036000830152612b1b81612adf565b9050919050565b7f4e6f2066756e647320746f207769746864726177000000000000000000000000600082015250565b6000612b58601483612299565b9150612b6382612b22565b602082019050919050565b60006020820190508181036000830152612b8781612b4b565b9050919050565b7f4552433732313a20696e76616c696420746f6b656e2049440000000000000000600082015250565b6000612bc4601883612299565b9150612bcf82612b8e565b602082019050919050565b60006020820190508181036000830152612bf381612bb7565b9050919050565b7f4552433732313a2061646472657373207a65726f206973206e6f74206120766160008201527f6c6964206f776e65720000000000000000000000000000000000000000000000602082015250565b6000612c56602983612299565b9150612c6182612bfa565b604082019050919050565b60006020820190508181036000830152612c8581612c49565b9050919050565b7f536b696c6c206e616d652063616e6e6f7420626520656d707479000000000000600082015250565b6000612cc2601a83612299565b9150612ccd82612c8c565b602082019050919050565b60006020820190508181036000830152612cf181612cb5565b9050919050565b7f446966666963756c74792063616e6e6f7420626520656d707479000000000000600082015250565b6000612d2e601a83612299565b9150612d3982612cf8565b602082019050919050565b60006020820190508181036000830152612d5d81612d21565b9050919050565b7f4e6f7420656e6f7567682045544820746f206d696e7420746865204e46540000600082015250565b6000612d9a601e83612299565b9150612da582612d64565b602082019050919050565b60006020820190508181036000830152612dc981612d8d565b9050919050565b60008190508160005260206000209050919050565b60006020601f8301049050919050565b600082821b905092915050565b600060088302612e327fffffffffffffffffffffffffffffffffffffffffffffffffffffffffffffffff82612df5565b612e3c8683612df5565b95508019841693508086168417925050509392505050565b6000819050919050565b6000612e79612e74612e6f84612340565b612e54565b612340565b9050919050565b6000819050919050565b612e9383612e5e565b612ea7612e9f82612e80565b848454612e02565b825550505050565b600090565b612ebc612eaf565b612ec7818484612e8a565b505050565b5b81811015612eeb57612ee0600082612eb4565b600181019050612ecd565b5050565b601f821115612f3057612f0181612dd0565b612f0a84612de5565b81016020851015612f19578190505b612f2d612f2585612de5565b830182612ecc565b50505b505050565b600082821c905092915050565b6000612f5360001984600802612f35565b1980831691505092915050565b6000612f6c8383612f42565b9150826002028217905092915050565b612f858261228e565b67ffffffffffffffff811115612f9e57612f9d6125c2565b5b612fa8825461293b565b612fb3828285612eef565b600060209050601f831160018114612fe65760008415612fd4578287015190505b612fde8582612f60565b865550613046565b601f198416612ff486612dd0565b60005b8281101561301c57848901518255600182019150602085019450602081019050612ff7565b868310156130395784890151613035601f891682612f42565b8355505b6001600288020188555050505b505050505050565b7f4e487b7100000000000000000000000000000000000000000000000000000000600052601160045260246000fd5b600061308882612340565b915061309383612340565b92508282019050808211156130ab576130aa61304e565b5b92915050565b600081905092915050565b60006130c78261228e565b6130d181856130b1565b93506130e18185602086016122aa565b80840191505092915050565b60006130f982856130bc565b915061310582846130bc565b91508190509392505050565b7f4f776e61626c653a206e6577206f776e657220697320746865207a65726f206160008201527f6464726573730000000000000000000000000000000000000000000000000000602082015250565b600061316d602683612299565b915061317882613111565b604082019050919050565b6000602082019050818103600083015261319c81613160565b9050919050565b7f4552433732313a207472616e736665722066726f6d20696e636f72726563742060008201527f6f776e6572000000000000000000000000000000000000000000000000000000602082015250565b60006131ff602583612299565b915061320a826131a3565b604082019050919050565b6000602082019050818103600083015261322e816131f2565b9050919050565b7f4552433732313a207472616e7366657220746f20746865207a65726f2061646460008201527f7265737300000000000000000000000000000000000000000000000000000000602082015250565b6000613291602483612299565b915061329c82613235565b604082019050919050565b600060208201905081810360008301526132c081613284565b9050919050565b7f4f776e61626c653a2063616c6c6572206973206e6f7420746865206f776e6572600082015250565b60006132fd602083612299565b9150613308826132c7565b602082019050919050565b6000602082019050818103600083015261332c816132f0565b9050919050565b7f4552433732313a20617070726f766520746f2063616c6c657200000000000000600082015250565b6000613369601983612299565b915061337482613333565b602082019050919050565b600060208201905081810360008301526133988161335c565b9050919050565b7f45524337323155524953746f726167653a2055524920736574206f66206e6f6e60008201527f6578697374656e7420746f6b656e000000000000000000000000000000000000602082015250565b60006133fb602e83612299565b91506134068261339f565b604082019050919050565b6000602082019050818103600083015261342a816133ee565b9050919050565b7f4552433732313a207472616e7366657220746f206e6f6e20455243373231526560008201527f63656976657220696d706c656d656e7465720000000000000000000000000000602082015250565b600061348d603283612299565b915061349882613431565b604082019050919050565b600060208201905081810360008301526134bc81613480565b9050919050565b600081519050919050565b600082825260208201905092915050565b60006134ea826134c3565b6134f481856134ce565b93506135048185602086016122aa565b61350d816122d4565b840191505092915050565b600060808201905061352d60008301876123d5565b61353a60208301866123d5565b61354760408301856124f5565b818103606083015261355981846134df565b905095945050505050565b600081519050613573816121ff565b92915050565b60006020828403121561358f5761358e6121c9565b5b600061359d84828501613564565b91505092915050565b7f4e487b7100000000000000000000000000000000000000000000000000000000600052601260045260246000fd5b7f4552433732313a206d696e7420746f20746865207a65726f2061646472657373600082015250565b600061360b602083612299565b9150613616826135d5565b602082019050919050565b6000602082019050818103600083015261363a816135fe565b9050919050565b7f4552433732313a20746f6b656e20616c7265616479206d696e74656400000000600082015250565b6000613677601c83612299565b915061368282613641565b602082019050919050565b600060208201905081810360008301526136a68161366a565b905091905056fea2646970667358221220d5bbbe1a9bca779bd23448f484a92cae75c81e177750916b4b3af8c085fe370b64736f6c63430008130033",
  "immutableReferences": {},
  "source": "// SPDX-License-Identifier: MIT\r\npragma solidity ^0.8.19;\r\n\r\nimport \"@openzeppelin/contracts/token/ERC721/extensions/ERC721URIStorage.sol\";\r\nimport \"@openzeppelin/contracts/access/Ownable.sol\";\r\n\r\ncontract ProofOfSkill is ERC721URIStorage, Ownable {\r\n    uint256 public tokenCounter;\r\n    uint256 public mintingFee;\r\n\r\n    struct Skill {\r\n        string skillName;\r\n        string difficulty;\r\n    }\r\n\r\n    mapping(uint256 => Skill) public tokenIdToSkill;\r\n\r\n    constructor(uint256 _mintingFee) ERC721(\"ProofOfSkill\", \"POS\") {\r\n        tokenCounter = 0;\r\n        mintingFee = _mintingFee;\r\n    }\r\n\r\n    function mintSkillNFT(address recipient, string memory skillName, string memory difficulty, string memory tokenURI) public payable {\r\n        require(bytes(skillName).length > 0, \"Skill name cannot be empty\");\r\n        require(bytes(difficulty).length > 0, \"Difficulty cannot be empty\");\r\n\r\n        require(msg.value >= mintingFee, \"Not enough ETH to mint the NFT\");\r\n\r\n        uint256 newItemId = tokenCounter;\r\n        _safeMint(recipient, newItemId);\r\n        _setTokenURI(newItemId, tokenURI);\r\n        tokenIdToSkill[newItemId] = Skill(skillName, difficulty);\r\n        tokenCounter += 1;\r\n    }\r\n\r\n    function withdraw() public onlyOwner {\r\n        uint256 balance = address(this).balance;\r\n        require(balance > 0, \"No funds to withdraw\");\r\n        payable(owner()).transfer(balance);\r\n    }\r\n\r\n    function getSkillDetails(uint256 tokenId) public view returns (string memory skillName, string memory difficulty) {\r\n        Skill memory skill = tokenIdToSkill[tokenId];\r\n        return (skill.skillName, skill.difficulty);\r\n    }\r\n}\r\n",
  "sourcePath": "D:\\Tem\\Engage Hack\\Engage Hackathon\\Engage-Hackathon\\contracts\\ProofOfSkill.sol",
  "compiler": {
    "name": "solc",
    "version": "0.8.19+commit.7dd6d404.Emscripten.clang"
  },
  "schemaVersion": "3.4.15",
  "updatedAt": "2024-10-23T12:34:47.313Z",
  "networkType": "ethereum",
  "devdoc": {
    "events": {
      "Approval(address,address,uint256)": {
        "details": "Emitted when `owner` enables `approved` to manage the `tokenId` token."
      },
      "ApprovalForAll(address,address,bool)": {
        "details": "Emitted when `owner` enables or disables (`approved`) `operator` to manage all of its assets."
      },
      "Transfer(address,address,uint256)": {
        "details": "Emitted when `tokenId` token is transferred from `from` to `to`."
      }
    },
    "kind": "dev",
    "methods": {
      "approve(address,uint256)": {
        "details": "See {IERC721-approve}."
      },
      "balanceOf(address)": {
        "details": "See {IERC721-balanceOf}."
      },
      "getApproved(uint256)": {
        "details": "See {IERC721-getApproved}."
      },
      "isApprovedForAll(address,address)": {
        "details": "See {IERC721-isApprovedForAll}."
      },
      "name()": {
        "details": "See {IERC721Metadata-name}."
      },
      "owner()": {
        "details": "Returns the address of the current owner."
      },
      "ownerOf(uint256)": {
        "details": "See {IERC721-ownerOf}."
      },
      "renounceOwnership()": {
        "details": "Leaves the contract without owner. It will not be possible to call `onlyOwner` functions anymore. Can only be called by the current owner. NOTE: Renouncing ownership will leave the contract without an owner, thereby removing any functionality that is only available to the owner."
      },
      "safeTransferFrom(address,address,uint256)": {
        "details": "See {IERC721-safeTransferFrom}."
      },
      "safeTransferFrom(address,address,uint256,bytes)": {
        "details": "See {IERC721-safeTransferFrom}."
      },
      "setApprovalForAll(address,bool)": {
        "details": "See {IERC721-setApprovalForAll}."
      },
      "supportsInterface(bytes4)": {
        "details": "See {IERC165-supportsInterface}."
      },
      "symbol()": {
        "details": "See {IERC721Metadata-symbol}."
      },
      "tokenURI(uint256)": {
        "details": "See {IERC721Metadata-tokenURI}."
      },
      "transferFrom(address,address,uint256)": {
        "details": "See {IERC721-transferFrom}."
      },
      "transferOwnership(address)": {
        "details": "Transfers ownership of the contract to a new account (`newOwner`). Can only be called by the current owner."
      }
    },
    "version": 1
  },
  "userdoc": {
    "kind": "user",
    "methods": {},
    "version": 1
  }
}